:100000000C9477010C9494010C9494010C94A80C1A
:100010000C9494010C9494010C9494010C9494010C
:100020000C9494010C94711C0C9494010C943B1A44
:100030000C9494010C949B190C94AD190C9494019C
:100040000C9494010C9494010C9494010C949401DC
:100050000C9494010C94CD0C0C9494010C94940188
:100060000C9494010C9494012020202020444346B9
:10007000373720496E666F0000204E6F773A202098
:10008000202020203A20203A002053746174757398
:100090003A207761697400204C6173743A00005A09
:1000A00030303020202020533030303020202020AD
:1000B0004F303030006E6576657220200020616719
:1000C0006F20006661696C00726561640020202009
:1000D00020205553203132687200202020202055E6
:1000E00053203234687200202020202045552031D2
:1000F000326872002020202020455520323468725A
:1001000000D4524154544368726F6E00D2496E74E9
:1001100072756465724368726F6E00D3536576655D
:100120006E4368726F6E00D652616E646F6D00D759
:10013000526F7461746500D5444346373720496E69
:10014000666F00D841626F757400FF736574207329
:10015000656373006368616E676520736563007330
:100160006574206D696E73006368616E6765206DEC
:10017000696E0073657420686F7572006368616EE4
:10018000676520687200736574206D696E73006323
:1001900068616E6765206D696E0073657420686FB5
:1001A0007572006368616E67652068722E00526523
:1001B00067696F6E3A20007365742079656172001B
:1001C0006368616E67652079722E007365742064C0
:1001D000617465006368616E6765206461790073AE
:1001E0006574206D6F6E2E006368616E6765206DAB
:1001F0006F6E00202020202000202020202000449E
:100200006174653A004D6F64653A0053657420422D
:1002100061636B6C696768743A200053657420549D
:10022000696D653A200053657420416C61726D3AC6
:100230002020009D1058BC1C16163F3F16161CBCF3
:100240005800000000101EB87D363C3C3C3C367D1A
:10025000B81E00000000109C9E5E76375F5F377608
:100260005E9E9C0000000010181C9C56B65F5FB696
:10027000569C1C18000000001070187DB6BC3C3C59
:10028000BCB67D187000000000101C5EFEB6375F23
:100290005F37B6FE5E1C000000000CF8FCFEFE3F5F
:1002A0001F1F3FFEFEFCF820746F20005072657324
:1002B000732000534554002B00736176650063681A
:1002C000616E67650073617665005345540065781B
:1002D0006974004D454E55007365740053455400D4
:1002E000616476616E6365004D454E5500001124D2
:1002F0001FBECFEFD8E0DEBFCDBF11E0A0E0B1E080
:10030000E0E8F8E402C005900D92A03BB107D9F7F0
:1003100012E0A0EBB1E001C01D92AE35B107E1F7EC
:100320000E94921D0C943E240C940000A0E0B0E0CA
:10033000ECE9F1E00C940F24C0E0D0E00E945E19DB
:10034000DD24CC24AA24BB24CC2011F08E014BC088
:100350008E010F5F1F4FF999FECFC85CDD4FD2BDF4
:10036000C1BDF89AE0B48FEFE816B1F4DD2019F0C2
:10037000CC24C39438C0F999FECF87E090E092BDB9
:1003800081BDF89A80B580933D020E94B314CDB729
:10039000DEB7EAE00C942B24DD2019F45801AE0CF2
:1003A000B11C2E2D30E0C901880F991F820F931FB9
:1003B000909581959F4F815C6D2D0E945419E801A5
:1003C000C85CDD4FFE2C0BC0F999FECFD2BDC1BD7C
:1003D000F89A80B560E00E946915FA942196FF2092
:1003E00099F70E0D111DD39488E0D81611F0E8018D
:1003F000ABCF84EF91E00E94121FE5019FCF81E017
:1004000080930202089581E0809301020895109282
:10041000E6011092E5018FEF8093000208959C01A0
:1004200080910302909104028217930739F0309370
:1004300004022093030281E08093E401E9EEF1E0FD
:100440008181819381E0ED3FF807D1F780E38083DC
:1004500081E08093FF0108959C018091E2019091D9
:10046000E3018217930739F03093E3012093E2010F
:1004700081E08093E401E9EEF1E08181819381E004
:10048000ED3FF807D1F781E3808381E08093FF019E
:1004900008959C018091E7019091E80182179307EC
:1004A00059F03093E8012093E70110920602109270
:1004B000050281E08093E401E9EEF1E0818181931E
:1004C00081E0ED3FF807D1F783E5808381E08093F9
:1004D000FF0108959C018091050290910602821708
:1004E000930759F030930602209305021092E80119
:1004F0001092E70181E08093E401E9EEF1E081816F
:10050000819381E0ED3FF807D1F786E4808381E0B5
:100510008093FF010895982FE9EEF1E081818193A6
:1005200081E0ED3FF807D1F7908381E08093FF01F0
:100530000895A0E0B0E0EFE9F2E00C9411246C0122
:1005400000E011E0C4E0D0E0E62EFF24EC16FD064A
:100550007CF0F80160817181C6010E94A323CB0168
:100560006AE070E00E94A323805D60E00E9469154C
:1005700021970E5F1F4FCC2349F7CDB7DEB7E8E0D8
:100580000C942D248A30910510F461E00CC084365F
:10059000910510F462E007C023E0883E920710F452
:1005A00063E001C064E00E949902089580E067E082
:1005B0000E94541989EE91E060E00E94AD15089503
:1005C00086E061E00E9491198091030290910402FB
:1005D00063E00E94990286E068E00E949119809190
:1005E000050290910602892B49F086E460E00E94A2
:1005F0006915809105029091060208C083E560E0CC
:100600000E9469158091E7019091E80164E00E94E1
:10061000990286E062E10E9491198091E201909135
:10062000E30163E00E949902089582E069E00E947C
:1006300091198091350290E062E00E94990282E077
:100640006CE00E9491198091400290E062E00E946B
:10065000990282E06FE00E94911980914B0290E034
:1006600062E00E9499020895909100029F3F01F17B
:1006700080914B02891B87FD845C4091E50150917C
:10068000E601282F332727FD3095CA0180959095E4
:100690002817390738F4240F351F3093E6012093CB
:1006A000E50106C08FEF9FEF9093E6018093E5018F
:1006B00084E069E00E9491198091E5019091E60142
:1006C0002FEF8F3F920711F18C33910520F40E9498
:1006D000C20283E715C02EE08031920748F46CE334
:1006E00070E00E94A323CB010E94C2028DE608C0E5
:1006F00060E17EE00E94A323CB010E94C20288E653
:1007000060E00E9469158DEB90E002C085EB90E0FF
:1007100060E00E949615089590914B02809100022E
:10072000891741F00E9415030E94340380914B0207
:100730008093000280910202882359F083E069E0EF
:100740000E94911988EC90E060E00E94961510924A
:10075000020280910102882359F083E069E00E943F
:10076000911983EC90E060E00E94961510920102CE
:100770008091E401882321F00E94E0021092E401BC
:100780008091FF01882321F00E94D6021092FF0180
:1007900008950F931F930E945E1900E010E080E01F
:1007A000612F0E945419802F90E088599F4F60E07C
:1007B0000E949615E02FF0E0E859FF4F0F5FE4919B
:1007C000EE23C1F71F5F173051F7E9EEF1E080E249
:1007D000819391E0EE3FF907D9F78FEF8093000204
:1007E0008FEF9FEF9093E6018093E5011092040252
:1007F000109203021092E3011092E2011092E801BC
:100800001092E70110920602109205021092E40184
:1008100010821092FF0110920102109202021F91A9
:100820000F91089580910A01815080930A018823D5
:10083000F1F485E080930A01809108018093B00172
:1008400090910901980F90930801903218F08FEF62
:1008500080930901992319F481E08093090190E0C4
:100860008091B101882309F491E09093B10108953A
:100870001F93182F80E060E00E94541980910902B4
:10088000612F0E94531D80910802612F0E94531D09
:1008900086E660E00E94541980910A02612F0E944E
:1008A000531D80910702612F0E94531D1F910895CF
:1008B0000F931F93082F14E1812F67E00E945419B2
:1008C00086E0602F0E943A15185E1437A9F71F9131
:1008D0000F910895DF92EF92FF920F931F93E82EEE
:1008E000909108018091B001981718F4892F805ACF
:1008F00002C0892F815068E041E020E30E2D0E9464
:10090000BE1560E083E0D82E15C080910801800FED
:10091000612F0E9454198091B1018D9DC001112455
:100920008F0D6E2D0E943A15005F003671F716305C
:1009300039F0612FF62EF69400E0162F1F5FE5CFF9
:100940001F910F91FF90EF90DF9008951F93182F44
:100950008091CF01882359F48091D001882339F404
:100960009091D3018091B301891709F44EC0109280
:10097000D0018091D0018093CF018091B201882372
:1009800009F043C081E08093B2018091D30180934C
:10099000B301809135020E948C20809309028091DE
:1009A0004002809308028091D301833049F4809102
:1009B00044020E948C2080930A0280913A021BC05C
:1009C0008091D301813031F484E180930A028091D7
:1009D000390211C080914302882339F480914A0280
:1009E00080930A0280913F0206C080913F0280936B
:1009F0000A0280914A02809307028091B2018150DD
:100A00008093B201812F0E9438041F9108951F9393
:100A1000182F0E946A0480914502882321F4809156
:100A2000B401882339F0812F0E9458048091450237
:100A30008093B401812F0E94A6041F9108950F9303
:100A40001F93182F80E060E040E820E4012F0E940F
:100A5000BE1583E68093B301812F0E94A604812FE7
:100A60000E943804812F0E946A04812F0E9458043A
:100A70001F910F91089581E0809308011092B001B9
:100A800080E00E941F050895803819F4E0E0F0E04E
:100A900027C087FF08C081950E944405EE27FF27E5
:100AA000E81BF90B1DC0803419F4EFEFFFE718C005
:100AB000A82FBB27A7FDB09580343CF4AA0FBB1F1D
:100AC000A55FBE4FED91FC910BC0E0E8F0E0EA1BA2
:100AD000FB0BEE0FFF1FE55FFE4F0190F081E02D55
:100AE000CF010895805C0E9444050895FC01208197
:100AF0003181C901861B970B81509B4F8F5F9940B5
:100B000018F4718360830895621773071CF42050F2
:100B1000354002C020503B4F318320830895A8E028
:100B2000B0E0E5E9F5E00C9408245A8349831C837E
:100B30000B83FE82ED8278876F83BC0169013324C9
:100B400020E089819A812C01662457FC6094762CE0
:100B500076C0AF80B884AC0CBD1C89809A80860EAC
:100B6000971E91E0A9169AE3B90644F0D094C19477
:100B7000D108D394A12C4AE3B42E0CC0E0E0AE1609
:100B8000E2E0BE063CF4D094C194D108D394A12CE9
:100B900032E0B32EF0E08F16FFE69F0604F13FE649
:100BA00060307307E4F476010027F7FC0095102FFE
:100BB00080E09FE6861B970BBC01882777FD809518
:100BC000982FA30192010E94EC23C801B7010E9453
:100BD0007823EF81F885E60FF71F9F0123C031E0EE
:100BE00083163DE093061CF58DE061307807FCF03C
:100BF00076010027F7FC0095102FE0E0FDE0E61BF2
:100C0000F70BBF01882777FD8095982FA3019201EC
:100C10000E94EC23C801B7010E9478232F813885F8
:100C2000260F371FEB81FC813183208304C02223F0
:100C300011F4339401C021E0B886AF82B401CB0136
:100C4000815096408F5F9F4608F483CF2F8138856F
:100C5000ED81FE8131832083832D2896E1E10C9480
:100C60002424EF92FF920F931F9380E00E94CF21E4
:100C7000A0E0B0E0BC01CD0122E230E040E050E075
:100C80000E9478232FEF3FE740E050E00E94CA2304
:100C900079018A0181E00E94CF212FE030E040E01D
:100CA00050E0E20EF31E041F151F8295880F880F77
:100CB000807C8E0D1F910F91FF90EF900895A0E022
:100CC000B0E0E5E6F6E00C940F245C016B01EA016C
:100CD0008091190290911A02609111027091120292
:100CE0004091150250911602E0910F02F09110020E
:100CF000222389F09F01850176010E948F05809350
:100D0000130210921402F5018081918199838883E6
:100D10008091CF0110C09F01860175010E948F054F
:100D20008093130210921402F601808191819983BD
:100D300088838091D001882311F021E001C020E058
:100D4000888199818C0100501440198308832223E3
:100D5000E1F0F5E100341F0718F480509C4E13C0F9
:100D60002AE20138120718F080509C410CC082E042
:100D70000E94CF21892B19F480E098EE02C080E018
:100D800098E1800F911F9983888380911302CDB7DA
:100D9000DEB7EAE00C942B24AF92CF92DF92EF9271
:100DA000FF920F931F93162FF42ED22E882389F4CF
:100DB000809118026091200244E024E0012FE4E0D9
:100DC000EE2E7AE0C72E50E1A52E0E942122882324
:100DD00031F0812F64E04F2D2D2D0E942C231F9187
:100DE0000F91FF90EF90DF90CF90AF9008950F9309
:100DF0001F93182F062F809109026AE00E94972303
:100E0000482F812F6EE1202F0E94CC06809109028D
:100E10006AE00E949723812F6DE2492F202F0E94C4
:100E2000CC0680910A026AE00E949723482F812F06
:100E300066E4202F0E94CC0680910A026AE00E949C
:100E40009723812F65E5492F202F0E94CC061F9103
:100E50000F9108950F931F93082F10E08FE3612FD8
:100E60000E945419002311F080EF01C08FE00E940E
:100E7000FB181F5F173091F78FE367E00E9454194A
:100E8000002311F080E201C08FEC0E94FB181F913B
:100E90000F9108959091D3018091B601981739F080
:100EA00081E08093B5018091D3018093B601809158
:100EB000D301813059F1813030F08230C9F1833073
:100EC00009F048C03DC08091CF01882321F4809172
:100ED000D001882391F08091D001882339F080914E
:100EE00041020E948C208093090204C08091CF01AE
:100EF000882381F18091370220C0809135020E94C1
:100F00008C20809309028091400217C08091430297
:100F1000882339F480914A028093090280913F022C
:100F20000CC080913F028093090280914A0205C063
:100F300084E1809309028091390280930A02089526
:100F4000809144020E948C208093090280913A0291
:100F500080930A020895AF92CF92EF92FF920F937F
:100F60001F93F82E0E944A07809118026091200278
:100F700044E024E00F2D0E94BE1510E0FF2009F48C
:100F800011E080911A026091120244E024E0012FE6
:100F90000E94BE15809118026091200244E024E076
:100FA0000FE3EE24CC24C39430E4A32E0E9421222C
:100FB000882319F08F2D0E942A0720910B0230916F
:100FC0000C0280910D0290910E022817390741F012
:100FD0008AE060910C0243E02CE00F2D0E94BE15C8
:100FE0008AE060910E0243E02CE0012F0E94BE15C2
:100FF00020911D0230911E0280911B0290911C02D3
:101000002817390741F083E760911E0243E02CE086
:101010000F2D0E94BE1583E760911C0243E02CE077
:10102000012F0E94BE15809118026091200244E0B9
:1010300024E003E7E0901C0293E0C92EBCE0AB2E55
:101040000E942122882341F083E760911C0243E043
:101050002CE0012F0E94BE158091180260912002A1
:1010600044E024E00AE0E0900E02A3E0CA2EFCE097
:10107000AF2E0E942122882341F08AE060910E0267
:1010800043E02CE0012F0E94BE1510927000809169
:10109000B501882311F01092B50181E080937000B2
:1010A0006F2D0E94F7061F910F91FF90EF90CF9048
:1010B000AF900895AF92CF92EF920F931F938091CC
:1010C000190290911A0290931802809317022091AE
:1010D0001102309112023093200220931F0260917E
:1010E000150270911602860F971F90931A02809333
:1010F000190240910F0250911002CA01820F931FF2
:10110000909312028093110281509A4374F080E010
:101110009AE3909312028093110288279927841BE7
:10112000950B9093100280930F0280911102909181
:101130001202805092408CF480E092E09093120270
:101140008093110280910F029091100290958195E9
:101150009F4F9093100280930F0280911A0281504A
:101160008C3750F4672B09F082C080910F02909168
:101170001002892B09F07BC080E09EE390931A0255
:101180008093190280E09EE19093120280931102F5
:101190000E943106182F0E947205AA2797FDA0957C
:1011A000BA2FBC01CD0120E035E040E050E00E94C4
:1011B00078232FEF3FE740E050E00E94EC2330938C
:1011C000160220931502812F0E944405AA2797FD3D
:1011D000A095BA2FBC01CD0120E035E040E050E001
:1011E0000E9478232FEF3FE740E050E00E94EC237D
:1011F0003093100220930F026091BE012091BD0137
:10120000261B8AE043E000E00E94BE156091C00109
:101210002091BF01261B83E743E00E94BE15109278
:10122000BF011092C0011092BD011092BE0181E079
:101230008093B5011092D0018091D0018093CF01AD
:1012400020E08091150290911602181619060CF4F0
:1012500021E087EB91E069EB71E04BEB51E00E94FC
:101260005F0680931302109214020E944A07609155
:101270000D0270910E0270930C0260930B0240916C
:101280001B0250911C0250931E0240931D0280913C
:1012900015029091160297FF31C08091190290912A
:1012A0001A02805090440CF05BC08091CF018823DB
:1012B00029F02091BB013091BC0106C020911102A0
:1012C0003091120220503440CB01821B930B81508D
:1012D0009B4F8F5F994028F430930E0220930D02AC
:1012E00054C0261737071CF46050754002C0605088
:1012F0007B4F70930E0260930D0247C0892BC1F1A2
:101300008091190290911A02815090448CF1809141
:10131000D001882329F02091BB013091BC0106C087
:10132000209111023091120220503440CA01821BD8
:10133000930B81509B4F8F5F994028F430931C0290
:1013400020931B0222C0241735071CF4405055403F
:1013500002C040505B4F50931C0240931B0215C0CB
:1013600087EB91E069EB71E04BEB51E021E007C0C6
:1013700087EB91E069EB71E04BEB51E020E00E94DC
:101380005F06809313021092140280910D029091D7
:101390000E028150924034F481E092E090930E026C
:1013A00080930D0280911B0290911C02815092400B
:1013B00034F481E092E090931C0280931B028091B0
:1013C0000D0290910E028050924334F08FEF91E322
:1013D00090930E0280930D0280911B0290911C024B
:1013E0008050924334F08FEF91E390931C028093EE
:1013F0001B0280911502909116021816190614F519
:1014000080911A026091120244E024E003E7E09028
:101410001C02F3E0CF2EECE0AE2E0E9421228823A6
:1014200089F08091150290911602909581959F4FB9
:10143000909316028093150280E09FE690931A0223
:1014400080931902809115029091160297FF22C095
:1014500080911A026091120244E024E00AE0E090D8
:101460000E0273E0C72E5CE0A52E0E942122882385
:1014700089F08091150290911602909581959F4F69
:10148000909316028093150280E09DE090931A02DB
:10149000809319021F910F91EF90CF90AF90089514
:1014A000FF920F931F93F82E80E060E040E820E465
:1014B0000F2D0E94BE1510E0FF2009F411E080E01E
:1014C00060E040E822E0012F0E94BE1580E06EE35C
:1014D00040E822E00E94BE158AE060910E0243E0DF
:1014E0002CE00E94BE1583E760911C0243E02CE0D3
:1014F0000E94BE150E944A07809109026AE00E947C
:101500009723482F8EE164E02F2D0E942C23809199
:1015100009026AE00E9497238DE264E0492F2F2D93
:101520000E942C2380910A026AE00E949723482F90
:1015300086E464E02F2D0E942C2380910A026AE049
:101540000E94972385E564E0492F2F2D0E942C23CC
:101550008F2D0E942A071F910F91FF90089580E020
:1015600099E190931A028093190290931802809344
:10157000170290931202809311029093200280939D
:101580001F0290930E0280930D0290930C028093A1
:101590000B0290931C0280931B0290931E02809377
:1015A0001D020E94C6211092100210920F0210928A
:1015B00016021092150280E00E94500A0895809150
:1015C0004902882341F08091CF01823021F080913F
:1015D000D001823031F41092D0018091D0018093FB
:1015E000CF010895A1E0B0E0E8EFFAE00C941124F7
:1015F000E82EF42E122FC02E962F9E5F1450D62E5A
:10160000DA9400E0CC2009F401E08E2D692F4F2DF3
:10161000212F99830E94BE15E394998191508EEFFA
:10162000F80E1E5F9D1569F72196E8E00C942D24B5
:101630000F93362F022F90E0FC01EE0FFF1FE80FF3
:10164000F91FE557FE4F8081882339F4818162813B
:10165000640F830F42E126E006C081816281640F3E
:10166000830F46E029E10E94F20A0F910895A0E05D
:10167000B0E0EDE3FBE00C941124C82ED62E022F2F
:1016800010E0C7E0D0E0E42EFF24C7010C2E02C01A
:10169000959587950A94E2F780FF05C0812F6C2D00
:1016A0004D2D202F07C020E0002309F421E0812FD9
:1016B0006C2D4D2D0E94180B1F5F2197173029F7B5
:1016C000CDB7DEB7E8E00C942D24382F4A3038F43B
:1016D000F999FECF842F90E0825D9D4F06C0F99965
:1016E000FECF842F90E08D549E4F92BD81BDF89A1D
:1016F00040B5832F0E94370B0895FF920F931F93DD
:10170000F82E142F062F0F7767FF08C020E0442320
:1017100009F421E080E060E048E008C0802F6AE042
:101720000E949723482F8F2D60E0212F0E94650B88
:10173000802F6AE00E9497238F2D825E60E0492F00
:10174000212F0E94650B1F910F91FF9008950F9319
:10175000082F80E060E040E820E40E94BE150F9171
:1017600008950F9380E060E040E820E400E00E94EC
:10177000BE150F91089520E0442309F421E044E0D0
:101780000E9494160895EF92FF920F931F93082FD3
:101790008091D3018823C9F08091D3018330A9F0CF
:1017A000102F011111E080E465E144E0212F0E9437
:1017B000941680E46AE244E0212F0E94941680E4AB
:1017C00066E044E0212F0E9494168091D30182307C
:1017D00069F480E064E1402F0E947D0B8091390222
:1017E00064E60E94972388E4692F17C08091D30193
:1017F0008130B9F480914302882329F460914A0230
:1018000010913F0204C060913F0210914A0280E0B3
:10181000402F0E947D0B88E4612F402F0E947D0B9A
:1018200067C08091D301882329F08091D301833050
:1018300009F05EC08091D301833029F410914402F5
:10184000E0903A0204C010913502E090400280918D
:101850003802882399F4812F0E948C20F82E1C30A6
:1018600020F420E0002321F402C020E0011121E057
:1018700080E466E044E00E94941609C020E0011173
:1018800021E080E466E044E00E949416F12E89E0B5
:101890008F1510F060E801C060E06F2980E0402FF4
:1018A0000E947D0B88E46E2D402F0E947D0B80915D
:1018B000D1018823E9F080914B0281708093D1019E
:1018C0008091D10120E0882309F421E080E465E1E2
:1018D00044E00E9494168091D10120E0882309F40D
:1018E00021E080E46AE244E00E9494161092D10163
:1018F0001F910F91FF90EF90089526982E9A81E006
:1019000080936800EBE6F0E080818064808382E071
:1019100080937C0010927B00EAE7F0E08EE8808301
:10192000808180648083089580917A00877F80938E
:101930007A0080917A00806480937A0080917A00A6
:1019400084FFFCCF2091780030917900C90108957F
:101950001F920F920FB60F9211242F933F934F9324
:101960005F936F937F938F939F93AF93BF93EF9307
:10197000FF9378940E944D1AFF91EF91BF91AF9120
:101980009F918F917F916F915F914F913F912F9197
:101990000F900FBE0F901F9018951F920F920FB6C9
:1019A0000F9211242F933F934F935F936F937F93E5
:1019B0008F939F93AF93BF93EF93FF93789480910E
:1019C00078009091790022E0803E920728F01092F2
:1019D000C5011092C2017DC022E08336920780F1DA
:1019E0008091C201882329F58AE090E00E94121FAD
:1019F00080917A00877F80937A0080917A0080645A
:101A000080937A0080917A0084FFFCCF80917800E7
:101A100090917900825692408E37910508F059C016
:101A200082E08093C60184E08093C2018093C40168
:101A300050C08091C601882309F04BC084E047C0A4
:101A40008F50914010F18091C201882309F041C06C
:101A50008AE090E00E94121F80917A00877F809335
:101A60007A0080917A00806480937A0080917A0075
:101A700084FFFCCF80917800909179008E50914046
:101A80008555914030F582E01EC08091C2018823C7
:101A900001F58AE090E00E94121F80917A00877F12
:101AA00080937A0080917A00806480937A0080919C
:101AB0007A0084FFFCCF80917800909179008F505C
:101AC000914038F481E08093C4018093C2018093F7
:101AD000C50180917A00886480937A00FF91EF912C
:101AE000BF91AF919F918F917F916F915F914F9136
:101AF0003F912F910F900FBE0F901F9018951F933D
:101B0000182F8BE260E00E94541920E030E090E052
:101B100006C0F901EF5FFE4F2F5F3F4F9491809118
:101B20003D02981719F09F3FA1F708C09F3F31F081
:101B3000C9018F5F9E4F612F0E9496151F910895D6
:101B40001F93182F88E064E00E9454198EEA91E0F8
:101B500060E00E949615809143022091380290E047
:101B6000880F991F820F911D2DE030E0AC01429F3C
:101B7000C001439F900D529F900D112483539F4F9E
:101B8000612F0E9496151F9108950F931F93CF9375
:101B9000DF93182F062F80913802882371F584E790
:101BA00061E00E9454191C3010F080E501C081E40E
:101BB00060E00E9469158DE460E00E94691580E58F
:101BC00061E00E945419812F90E047966CE070E02C
:101BD0000E94B723EC018930910524F09C012F5F0E
:101BE000822F10C080E260E00E9469159E012F5C88
:101BF000822F602F0E94691508C080E561E00E9475
:101C00005419812F602F0E94531DDF91CF911F9196
:101C10000F9108950F931F93CF93DF93082F162FE3
:101C2000809138028823D1F4802F90E047966CE0B1
:101C300070E00E94B723EC018930910524F09C01EB
:101C40002F5F822F14C080E260E00E9469159E0120
:101C50002F5C822F612F0E9469150CC080E260E02A
:101C60000E94691580E260E00E946915802F612F53
:101C70000E94531DDF91CF911F910F9108950E94F3
:101C8000531D8FE260E00E9469150895EF92FF9264
:101C90000F931F93F82E162FE42E022F88E063E097
:101CA0000E9454198FEF91E060E00E949615809198
:101CB0004302882391F489EF91E060E00E94961539
:101CC00060E00B3009F461E08F2D0E943F0E60E070
:101CD0000C3009F461E0812F15C0809143028130FE
:101CE00099F483EF91E060E00E94961560E00C307B
:101CF00009F461E0812F0E943F0E60E00B3009F48F
:101D000061E08F2D0E943F0E10E00D3009F411E0CC
:101D100084E1612F0E94531D8E2D612F0E94531D5F
:101D20001F910F91FF90EF9008951F93182F88E057
:101D300065E00E9454198BE092E060E00E949615E5
:101D40008091B40060E0193609F461E00E94531DEF
:101D50001F910895DF92EF92FF920F931F93E82E49
:101D6000F62ED42E122F88E062E00E9454198BE1E7
:101D700092E060E00E94961500E0153609F401E05B
:101D80008E2D602F0E940A0E8AE360E00E94691582
:101D900060E0163609F461E08F2D0E94531D8AE33E
:101DA00060E00E94691560E0173609F461E08D2D4E
:101DB0000E94531D80913802882369F480E260E01C
:101DC0000E9469158BE08E1510F480E501C081E456
:101DD000602F0E9469151F910F91FF90EF90DF9087
:101DE00008951F93182F88E061E00E94541986E23D
:101DF00092E060E00E9496158091440260E0153602
:101E000009F461E00E94C50D8AE360E00E94691553
:101E100080913A0260E0163609F461E00E94531D99
:101E20001F9108958B3029F488EE91E06FED71E0F9
:101E30000DC08C3029F484ED91E06BEC71E006C0AC
:101E40008D3039F480EC91E067EB71E00E9405235E
:101E500008950E94212308951F93182F8091C8018F
:101E60008F5F8093C8010E945E1988E060E00E9445
:101E7000541985E092E060E00E94961580E00E948F
:101E80007F0D84E00E94F10E809135026091400246
:101E900040914B0223E00E94AA0E80914A02609179
:101EA0003F024091390225E00E94460E80E00E94E8
:101EB000A00D86E00E94950E80914602863019F4AE
:101EC0000E94162302C00E942123110F110F110F2F
:101ED0001D5F80E0612F47E00E946A1D8091C8016C
:101EE00081508093C8011F9108950E942C0F8AE0B1
:101EF0008093C701809146020895CF92DF92EF92BE
:101F0000FF920F931F9382E00E94750F082F10918C
:101F10003502D0904002F0904B028DC08091C401F8
:101F200081FF45C01092C4018091C8018F5F8093EA
:101F3000C801033041F48CE791E063E771E00E944F
:101F4000052305E629C0053641F488E691E06FE5F2
:101F500071E00E94052306E61FC0063641F484E5C1
:101F600091E06BE471E00E94052307E615C00E9432
:101F7000212300913F02E0904A02C09039028F2D48
:101F80006D2D412F20E00E94DA1A10933502D09275
:101F90004002F0924B0203E0812F6D2D4F2D202F38
:101FA0000E94AA0E8091C80181508093C80180913F
:101FB000C40182FD04C08091C50182FF3CC0109223
:101FC000C4018091C8018F5F8093C801053659F420
:101FD000812F90E0019668E170E00E94B723182FEE
:101FE0008093350215C0063649F48D2D90E0019698
:101FF0006CE370E00E94B723D82E0AC0073641F484
:102000008F2D90E001966CE370E00E94B723F82ECC
:10201000812F6D2D4F2D202F0E94AA0E8091C80177
:1020200081508093C8018091C50182FF04C088EC73
:1020300090E00E94121F0E948422882309F46ECF30
:102040001F910F91FF90EF90DF90CF900895EF9246
:10205000FF921F93CF93DF9381E00E94750F182F9B
:1020600042E0E42E40E0F42EC1E0D0E076C0809162
:10207000C40181FF26C01092C4018091C8018F5F06
:102080008093C801143041F483EA91E06AE971E079
:102090000E94052315E60DC0153641F48FE891E046
:1020A00066E871E00E94052316E603C00E94212322
:1020B00014E0812F0E94F10E8091C801815080931D
:1020C000C8018091C40182FD04C08091C50182FFD6
:1020D00044C01092C4018091C8018F5F8093C801F1
:1020E000153691F48091440290E0019668E170E029
:1020F0000E94B7238093440280914402F999FECF55
:102100001FBAD2BDC1BD13C01636B9F480913A02D0
:1021100090E001966CE370E00E94B72380933A024E
:1021200080913A02F999FECF1FBAF2BCE1BC80BDA2
:102130000FB6F894FA9AF99A0FBE812F0E94F10E09
:102140008091C80181508093C8018091C50182FFB0
:1021500004C088EC90E00E94121F0E948422882311
:1021600009F485CFDF91CF911F91FF90EF900895F3
:102170001F93CF93DF9385E00E94750F182FC3E064
:10218000D0E04DC08091C40181FF18C01092C401FD
:102190008091C8018F5F8093C801163021F40E949E
:1021A0000F2319E603C00E94162316E0812F0E9418
:1021B000950E8091C80181508093C8018091C4011F
:1021C00082FD04C08091C50182FF29C01092C40124
:1021D000193629F58091B4008F5F8093B400809107
:1021E000B400813110F01092B4008091C8018F5F6B
:1021F0008093C80189E60E94950E8091C8018150A4
:102200008093C8018091B400F999FECF1FBAD2BD66
:10221000C1BD80BD0FB6F894FA9AF99A0FBE0E941C
:102220008422882309F4AECFDF91CF911F910895C6
:102230008F929F92AF92BF92CF92EF920F931F9384
:10224000DF93CF9300D0CDB7DEB783E00E94750F48
:10225000082F80913F02898380914A028A831091DE
:10226000390252E0852E912C8C0E9D1E5E01089441
:10227000A11CB11C85C08091C40181FF43C0109294
:10228000C4018091C8018F5F8093C801053031F48B
:10229000E0914302F0E0E056FE4F07C00B3039F406
:1022A000E0914302F0E0EE55FE4F00811DC00C307E
:1022B00031F4E0914302F0E0EC55FE4FF6CF80910F
:1022C0004B02609140024091350220E00981EA8092
:1022D000C12E0E94DA1A109339028A8180934A0231
:1022E000898180933F0205E0802F0E94120F8A812E
:1022F0006981412F202F0E94460E8091C801815094
:102300008093C8018091C40182FD04C08091C50101
:1023100082FF36C01092C4018091C8018F5F809304
:10232000C8010B3021F48A818F5F8A8310C00C3082
:1023300021F489818F5F89830AC00D3041F4812F98
:1023400090E0019664E670E00E94B723182FC40164
:10235000B501412F50E00E944B228A816981412FB3
:10236000202F0E94460E8091C80181508093C801A1
:102370008091C50182FF04C088EC90E00E94121F8A
:102380000E948422882309F476CF0F900F90CF917A
:10239000DF911F910F91EF90CF90BF90AF909F90E2
:1023A0008F900895EF92FF921F93CF93DF9384E075
:1023B0000E94750F182F64E0E62E60E0F62EC5E04F
:1023C000D0E06FC08091C40181FF1BC01092C40196
:1023D0008091C8018F5F8093C801183039F481E083
:1023E0000E94A00D0E940F2318E606C080E00E9404
:1023F000A00D0E94212318E08091C8018150809394
:10240000C8018091C40182FD04C08091C50182FF92
:1024100048C01092C401183609F043C080913802B8
:10242000882359F0809143028F5F8093430280910B
:102430004302823010F0109243028091380290E003
:10244000882309F491E0909338028091C8018F5F4E
:102450008093C80184E00E942C0F0E940F2381E02A
:102460000E94A00D8091C80181508093C801809185
:102470004302F999FECF1FBAF2BCE1BC80BD0FB692
:10248000F894FA9AF99A0FBE80913802F999FECF22
:102490001FBAD2BDC1BD80BD0FB6F894FA9AF99AA1
:1024A0000FBE0E948422882309F48CCFDF91CF9144
:1024B0001F91FF90EF9008950F931F93CF93DF9399
:1024C000F999FECFC7E0D0E0D2BDC1BDF89A80B582
:1024D00080933D0280E00E94750F182F02ED66C0C8
:1024E0008091C40181FF31C01092C4018091C80164
:1024F0008F5F8093C801183C61F481E00E947F0DDA
:102500000E940F238091C80181508093C80119EC6B
:102510001CC080E00E947F0D0E942123109249027E
:102520001092460280913D02883D08F044C080919F
:102530003D02F999FECF1FBAD2BDC1BD80BD0FB615
:10254000F894FA9AF99A0FBE36C08091C40182FDC0
:1025500004C08091C50182FF29C01092C401193CBA
:1025600029F580913D028F5F80933D0280913D026D
:10257000893D10F000933D028091C8018F5F8093E8
:10258000C80180E00E942C0F0E940F2381E00E946E
:102590007F0D8091C80181508093C8018091C50151
:1025A00082FF04C088EC90E00E94121F0E948422E7
:1025B000882309F495CFDF91CF911F910F91089552
:1025C0001092250210922A021092290210922102E2
:1025D00010922802109227021092230210922B02CE
:1025E000109222021092260210922C0210922402C3
:1025F00010922D0210922E02089510922302109232
:102600002B02109222021092260210922C0210929B
:10261000240210922D0210922E020895109223028D
:1026200010922B02109222021092260210922C027B
:102630001092240210922D0210922E020E94030288
:102640000895382F20912302243209F44BC02532FB
:1026500068F42D3140F42631F0F42531B8F42130FE
:1026600008F07BC008952D3179F523C0233338F469
:102670002E3208F052C02B3208F442C067C02B3310
:1026800008F458C02B3309F075C06BC0882309F4D7
:1026900071C086E116C0882309F458C0E22FF0E02B
:1026A000E057FE4F80912B029081890F80932B027F
:1026B0004DC080912D02831709F05CC010922D024D
:1026C0008EE1809323020895882309F43FC0E22F0E
:1026D000F0E0E857FE4F809122029081890F8093AD
:1026E000220234C080912D02831709F043C010925A
:1026F0002D0285E28093230281E080932E020895CB
:10270000882321F1E22FF0E0EF57FE4F809126025F
:102710009081890F8093260219C08823B9F0E22F97
:10272000F0E0E858FE4F80912C029081890F809351
:102730002C020CC0882351F0E22FF0E0ED58FE4F40
:10274000809124029081890F8093240290E08091EF
:102750002D02831391E090932D022F5F209323028B
:10276000089580912D02831729F41092230210926C
:102770002D0208950E940E13089581E08093230294
:102780000E94FF010895CF92EF920F93CF93DF93B2
:10279000EC01815496408F58914028F40E94BD135B
:1027A000CE010E94490280912E02882309F46AC05A
:1027B00000912602002351F480912C02882331F4E9
:1027C00020E030E080912402882311F021E030E005
:1027D00080912B02882321F0815080932B020CC022
:1027E0008BE380932B0280912202882311F0815089
:1027F00001C087E18093220260912B02662321F4BD
:10280000809122028823C9F0232BB9F084E2409101
:10281000220220E0E0902C02C09024020E94DA1AEA
:10282000809124028093390280912C0280934A0285
:102830008091260280933F020CC000913F02E090FD
:102840004A02C090390284E24091220220E00E94B4
:10285000DA1A809122028093350280912B028093B4
:10286000400284E280934B021092240210922C02C8
:10287000109226021092220210922B0210922E0227
:102880000E940702DF91CF910F91EF90CF900895B2
:10289000CF93DF93EC0189978935910538F480E077
:1028A0000E942113CE010E940F0212C0CE018D584A
:1028B00090408935910538F481E00E942113CE01C2
:1028C0000E942C0205C00E940E13CE010E946A02D3
:1028D000DF91CF9108958091270290912802892B52
:1028E000A9F080912102882339F0809127029091EC
:1028F00028020E94481406C0809127029091280265
:102900000E94C3131092280210922702089580910A
:102910003D02833D81F0843D18F4823D89F408C076
:10292000843D19F0853D61F409C00E945A0808955C
:102930000E94120408950E94DF0A08950E948C03E9
:10294000089590913D02933D59F0943D19F0923DC8
:1029500049F403C00E94500A08950E941F0508957B
:102960000E94A70B08951F931FE080913D02853DB3
:1029700029F1863D38F4833D91F0843D50F4823D49
:1029800011F50AC0873D71F0873D70F0883DD9F49C
:1029900018C00E94AF0A17C00E943B0514C00E94D5
:1029A000B10B11C0109349020E94C62180E00E9421
:1029B000CF2183708E5280933D02D7CF0E94C903EE
:1029C00002C00E9496011F9108951F93182F8091B5
:1029D0004902882381F18091CF01813021F08091DB
:1029E000D001813041F58091CF01882319F082E038
:1029F0008093CF018091D001882319F082E08093E9
:102A0000D00180914902815080934902809149020E
:102A1000882389F48FE08093490280913D028F5F83
:102A200080933D0280913D02863D19F482ED8093B2
:102A30003D020E94B31480913D02833D69F0843DC4
:102A400019F0823D61F404C0812F0E94AB0707C0DA
:102A5000812F0E94070503C0812F0E94C30B1F9185
:102A60000895F999FECF8C5C9F4F92BD81BDF89A75
:102A700080B50895FF920F931F93CF93DF93482F54
:102A8000F62E30E020E007C08C5C9D4FFC01849165
:102A90008F5F280F3F5F822F90E03417A8F3FC016F
:102AA000EC5CFD4F0491EC01CB5CDD4F10E00AC003
:102AB000FE018491F1E0FF1609F480950E94FB1855
:102AC0001F5F21961017A0F3CDB7DEB7E5E00C9499
:102AD0003024FF920F931F93CF93DF93F62E95E050
:102AE000899FC0011124EC01CC56D0408C010756BF
:102AF0001040F999FECFD2BDC1BDF89A80B5F11052
:102B000080950E94FB182196C017D10791F7FF20EE
:102B100011F08FEF01C080E00E94FB1880E00E945E
:102B20004719CDB7DEB7E5E00C9430240F931F931F
:102B3000CF93DF93EC01062F10E004C0602F0E94BA
:102B400069151F5FFE01E10FF11D84918823B1F724
:102B5000DF91CF911F910F9108951F93CF93DF9332
:102B6000EC01162F04C0612F0E94691521968881FF
:102B70008823C9F7DF91CF911F910895A0E0B0E0BD
:102B8000E4ECF5E10C940724282E162F342EF22EB7
:102B9000402EC62FD0E0C770D070209709F45BC0DC
:102BA000562E569456945694EE2437E0C32EC622E1
:102BB0008C2C992487FC90945E01A20EB11C21E01C
:102BC000622E712C35C0DE2CD20C8D2D652D0E940D
:102BD00054190E94AE180E94AE18082F40E050E031
:102BE00015C081E0481641F4C30102C0880F991F47
:102BF0002A95E2F7082B08C0C30102C0880F991F6D
:102C00002A95E2F7809508234F5F5F4F9A01280DC0
:102C1000391D2A153B0524F48C2D840F883009F7C3
:102C20008D2D652D0E945419802F0E94FB18E3946E
:102C3000E31448F22F2D30E088E090E08C1B9D0BD0
:102C40008217930714F0FF2404C0812F87708850E7
:102C5000F80E187F185FE12EE694E694E694C12FF3
:102C6000D0E0CF0DD11D93E0D595C7959A95E1F7AA
:102C700012C0822D6E2D0E94541910E009C081E00F
:102C8000481611F48FEF01C080E00E94FB181F5F0F
:102C90001315A8F3E3948E2D90E08C179D074CF349
:102CA0002F2D2770C9F100E0C22FD0E081E0A82EBF
:102CB000B12C30C0F02EF20C8F2D6E2D0E945419C5
:102CC0000E94AE180E94AE18182F20E030E017C006
:102CD00081E0481649F4C501022E02C0880F991FF1
:102CE0000A94E2F7182B09C0C501022E02C0880F12
:102CF000991F0A94E2F7809518232F5F3F4F2C17F6
:102D00003D0734F38F2D6E2D0E945419812F0E94A0
:102D1000FB180F5F031570F280E00E944719CDB7D2
:102D2000DEB7E2E10C942324A3E0B0E0EAE9F6E1A7
:102D30000C940724382E462E522E262E281AA42E06
:102D4000BB24C501880F991F22273327281B390B65
:102D50002D5F3F4F3B832A83882499246624772460
:102D6000342D32193983182DCA2CD42CDA18750158
:102D7000EE0CFF1C882D830D6D2D41E02E2D052DB1
:102D80000E94BE15832D88196D2D41E02E2D0E94C5
:102D9000BE15F42CF818110F89818A0D6F2D41E0B2
:102DA000212F0E94BE158D2D82196F2D41E0212FFC
:102DB0000E94BE158A819B8197FF06C00696860DEC
:102DC000971D9B838A8311C0EA81FB813A96C401D7
:102DD0008A199B09880F991F880F991FE80FF91FFF
:102DE000FB83EA830894A108B1080894811C911C14
:102DF00024E030E0620E731EA814B9040CF0B3CFC7
:102E00002396E2E10C942324EF92FF920F931F93F9
:102E1000F82E162F062F069506950695602F0E9410
:102E200054190E94AE180E94AE18E82E8F2D602F04
:102E30000E945419177081E090E002C0880F991F1A
:102E40001A95E2F78E290E94FB1880E00E9447192C
:102E50001F910F91FF90EF900895459A449A109218
:102E6000CB011092CA011092CD011092CC0180E2E8
:102E70008093B800ECEBF0E0808184608083109256
:102E8000C90180818160808380818064808378949F
:102E9000089580E28093B8000895ECEBF0E0808123
:102EA0008F70806A80830895ECEBF0E080818F70F2
:102EB000806D808308958091BC0087FFFCCF0895CA
:102EC0008093BB00ECEBF0E080818F7080688083A2
:102ED0000895882329F08091BC008F70806C04C015
:102EE0008091BC008F7080688093BC0008958091B1
:102EF000BB0008958091B9000895982FFA01809140
:102F0000BC008E7F8093BC008091BC008F70806A73
:102F10008093BC008091BC0087FFFCCF9E7F909384
:102F2000BB008091BC008F7080688093BC00809152
:102F3000BC0087FFFCCF8091B900883189F091E017
:102F400012C080818093BB008091BC008F7080682C
:102F50008093BC008091BC0087FFFCCF319661500C
:102F6000662379F790E08091BC008F70806D80932C
:102F7000BC008091BC0084FFFCCF8091BC008160CC
:102F80008093BC00892F0895982FFA018091BC008E
:102F90008E7F8093BC008091BC008F70806A80938C
:102FA000BC008091BC0087FFFCCF91609093BB0078
:102FB0008091BC008F7080688093BC008091BC00C1
:102FC00087FFFCCF8091B900803481F091E01EC072
:102FD0008091BC008F70806C8093BC008091BC009D
:102FE00087FFFCCF8091BB0081936150623080F7F6
:102FF0008091BC008F7080688093BC008091BC0081
:1030000087FFFCCF8091BB00808390E08091BC0063
:103010008F70806D8093BC008091BC008160809334
:10302000BC00892F08952F982D982C9840985A9875
:10303000279A259A249A389A529A8BB18F708BB915
:1030400085B1807F85B98AB1806F8AB984B18F607C
:1030500084B9089540985A98882319F0813021F452
:1030600002C0409A08955A9A0895F8940E942A1826
:103070008BB1806F8BB985B18F6085B92F988AB17C
:103080008F708AB984B1807F84B92D9A2C9A000000
:1030900000000AC02C9800000000000000002C9ADC
:1030A000000000000000000089B193B187FDF2CF5D
:1030B0002C982D988AB1806F8AB984B18F6084B9B9
:1030C000789408951F93162FF8940E9435182F981E
:1030D0002D982C9A8AB1806F8AB984B18F6084B997
:1030E0008BB18F708BB99BB1812F807F892B8BB96E
:1030F00085B1807F85B985B11F70812B85B90000AE
:1031000000000000000000000000000000002C98FB
:1031100078941F910895F8940E9435182F988AB1D9
:103120008F708AB984B1807F84B92D9A2C9A00005F
:10313000000000000000000000000000000029B1B5
:1031400083B12C982D989AB1906F9AB994B19F60E1
:1031500094B978948F70207F822B0895F894809191
:103160002F0282958695869583700E9435182F9A36
:103170008AB18F708AB984B1807F84B92D9A2C9AD4
:10318000000000000000000000000000000000003F
:1031900099B183B12C982D9878948F70907F892B5A
:1031A0000895089580932F0280E060E40E946218E1
:1031B0001092310281E060E40E94621810923302A2
:1031C00080912F02682F6F73606482958695869533
:1031D00083700E94621808951F93182F8093300205
:1031E000186B80E0612F0E94621881E0612F0E94BD
:1031F00062181F9108950F931F93182F00912F02AB
:103200000295069506950370F894802F0E94351854
:103210002F9A2D982C9A8AB1806F8AB984B18F60C9
:1032200084B98BB18F708BB99BB1812F807F892B33
:103230008BB985B1807F85B985B11F70812B85B928
:10324000000000000000000000000000000000007E
:103250002C987894E02FF0E0EE0FFF1FE15DFD4F1A
:1032600082818F5F828380912F028F5F80932F02F4
:1032700087FF0AC0809130028F5F809330020E94E6
:10328000EC1880E00E94D2181F910F9108951F93AF
:10329000182F106C80E0612F0E94621881E0612F6E
:1032A0000E9462181F9108951F93182F862F0E9465
:1032B000EC18812F0E94D2181F9108950F931F932D
:1032C00000E080E0602F0E94541910E080E00E942E
:1032D000FB181F5F1038D1F70F5F083091F71F916F
:1032E0000F91089580E00E94471980E060E00E94FD
:1032F000541910923102109232021092330210923D
:10330000340208950E94131880E06FE30E9462184F
:1033100081E06FE30E9462180E945E190E94721998
:103320000895982F86E0689F802D1124692F0E94B0
:103330005419089508951F920F920FB60F921124F9
:103340008F939F9388B198E0892788B99F918F9137
:103350000F900FBE0F901F9018951F920F920FB6EF
:103360000F9211242F933F938F939F938091D601B7
:103370009091D701892B49F08091D6019091D70186
:1033800001979093D7018093D60180914702909145
:103390004802892B49F08091470290914802019799
:1033A000909348028093470280914502882389F1D7
:1033B0008091D4019091D501892B59F580913B02E0
:1033C00090913C02892BE1F48CE291E090933C02D5
:1033D00080933B0280918100882379F410928000D1
:1033E00089E08093810083E080936F0088EE93E012
:1033F000909389008093880003C0109281004398C5
:1034000080913B0290913C02019790933C02809303
:103410003B028091290290912A02019690932A0200
:103420008093290286B12091250290E082709070ED
:1034300030E082179307B1F080912502809321023A
:103440008091250292E089278093250280912902AC
:1034500090912A02909328028093270210922A02C8
:10346000109229029F918F913F912F910F900FBE43
:103470000F901F9018951F920F920FB60F92112464
:103480008F939F9388B198E0892788B99F918F91F6
:103490000F900FBE0F901F9018951E9B16C0809125
:1034A0004202882349F11092420210924C0210927B
:1034B000D5011092D401809145028823E9F0109241
:1034C000450210928100439808958091420288231A
:1034D00099F481E0809342021092D5011092D401B8
:1034E00083E08093D30180913D02813011F083E02D
:1034F00001C085E08093D2010895FC018370907033
:10350000892B39F4CF0164E670E00E94A323892B54
:1035100049F420E030E0CF0160E971E00E94A3238C
:10352000892B11F421E030E0822F08950895482F6F
:103530006AE00E949723282F30E084E0220F331F97
:103540008A95E1F7842F0E949723892F822B089573
:1035500088E592E09093D5018093D4011092810088
:103560004398109246020895FF920F931F93F62EF0
:103570001092800001E810E029E0F801208323E0A8
:1035800020936F009C0140E050E060E079E08DE323
:1035900090E00E94EC2330938900209388008F2DC7
:1035A00090E00E94121FF801108243981F910F9122
:1035B000FF900895A8E0B0E0E0EEFAE10C94112449
:1035C000162FF42ED22EFE01319698E0DF011D92C7
:1035D0009A95E9F719820E94971A8A83812F0E948F
:1035E000971A8B838F2D0E94971A8C838D2D0E94A2
:1035F000971A8D83802F0E94971A8E838E2D0E949A
:10360000971A8F838C2D0E94971A8887F89480EDE3
:1036100068E0AE014F5F5F4F0E947D17789488236A
:1036200099F080EA9FE064E60E94B41A84E690E094
:103630000E94121F80EA9FE064E60E94B41A88EE9E
:1036400093E00E94121FEDCF2896E8E00C942D2401
:10365000F999FECF80E090E092BD81BDF89A80B5E7
:10366000E3E3F2E0E4918E17E1F080EA9FE064E6A4
:103670000E94B41A84E690E00E94121F80EA9FE044
:1036800064E60E94B41A84E690E00E94121F80EA69
:103690009FE064E60E94B41A88EE93E00E94121F35
:1036A000E4CF0895A9E0B0E0E8E5FBE10C9417242D
:1036B0001982F89480ED61E0AE014F5F5F4F0E9488
:1036C0007D178823A1F0789480EA9FE064E60E9449
:1036D000B41A84E690E00E94121F80EA9FE064E63C
:1036E0000E94B41A88EE93E00E94121FECCF80ED86
:1036F00067E0AE014E5F5F4F0E94C4177894882345
:1037000099F080EA9FE064E60E94B41A84E690E0B3
:103710000E94121F80EA9FE064E60E94B41A88EEBD
:1037200093E00E94121FEDCF7A81872F82958F70D0
:1037300090E0877090709C01E3E0220F331FEA95C0
:10374000E1F7880F991F280F391F872F8F70820F7D
:1037500080934B024B81842F82958F7090E087700D
:1037600090709C0153E0220F331F5A95E1F7880FA8
:10377000991F280F391F4F70420F409340028C81D0
:10378000482F42954F70682F6F7086FF22C0829538
:103790008695877090E0817090709C01220F331F96
:1037A000280F391F220F331F220F331F842F90E061
:1037B00081709070AC01E3E0440F551FEA95E1F78A
:1037C000880F991F480F591F240F260F2093350289
:1037D00011C0842F90E0837090709C01B3E0220FA1
:1037E000331FBA95E1F7880F991F280F391F620F11
:1037F000609335024E81842F82958F7090E08370A4
:1038000090709C01F3E0220F331FFA95E1F7880FC7
:10381000991F280F391F4F70420F40933F024F816D
:10382000842F82958F7090E0817090709C0163E08E
:10383000220F331F6A95E1F7880F991F280F391F50
:103840004F70420F40934A022885822F82958F70D5
:103850003AE0839FC00111242F70280F2093390272
:10386000872F80782996E2E00C943324CF92EF9250
:103870000F930E942D170E94521B882359F080E05D
:1038800060E04CE020E001E0EE24E394F9E0CF2E8C
:103890000E94DA1A0E94521BF999FECF82E090E052
:1038A00092BD81BDF89A80B56CE30E9497239093F6
:1038B0003A02F999FECF81E090E092BD81BDF89A7D
:1038C00080B568E10E9497239093440287E080933B
:1038D000B10081E08093700078940F91EF90CF90C9
:1038E00008951F920F920FB60F921124FF920F931B
:1038F0001F932F933F934F935F936F937F938F9378
:103900009F93AF93BF93EF93FF93A8958091D801B6
:10391000803579F41092D80110914B020091400249
:10392000F09035020E94521B809135028F1529F4C8
:103930000AC08F5F8093D801A2C081E08093D0013C
:10394000F092410207C080914002801731F081E07F
:103950008093CF010093370209C080914B028117F9
:1039600029F081E08093D10110934D0280914B02A8
:10397000811709F43FC080914502882359F0809156
:10398000D4019091D501009729F001979093D5012A
:103990008093D4018091D201882361F18091D2017A
:1039A00081508093D2018091D201882319F58091B2
:1039B000D301809336021092D3018091D0018823E5
:1039C00029F0809141028093350204C08091CF019B
:1039D000882321F080913702809340028091D001AA
:1039E000882321F48091CF01882321F0F0923502C1
:1039F0000093400280914202882399F080914B020B
:103A0000882379F49091400280913A02981749F402
:103A10009091350280914402981719F481E08093C7
:103A20004C028091CF01882369F48091D0018823D2
:103A300049F480914C02882329F081E0809345026B
:103A400010924C028091D901863039F41092D9013C
:103A50008091C601882329F409C08F5F8093D90122
:103A60000EC08091C60181508093C6018091C7012C
:103A7000882329F08091C70181508093C701FF916D
:103A8000EF91BF91AF919F918F917F916F915F91D6
:103A90004F913F912F911F910F91FF900F900FBE6B
:103AA0000F901F9018950F931F93182F062F6AE001
:103AB0000E949723805D602F0E946915812F6AE024
:103AC0000E949723892F805D602F0E9469151F91A6
:103AD0000F910895EF92FF920F931F93F82E162FD8
:103AE000E42E21E001E00E94BE15FE0C0F2D0250D5
:103AF0001150802F612F0E9404171E5F802F612FAD
:103B00000E94041701501350802F612F0E94041748
:103B10001C5F802F612F0E9404171F910F91FF904F
:103B2000EF900895A0E0B0E0E8E9FDE10C940B24EB
:103B300084B714BE88E10FB6F894809360001092A9
:103B400060000FBE87E690E00E94F91E0E94E0121E
:103B50003B9A0E94361C0E94281BF999FECF84E0F4
:103B600090E092BD81BDF89A80B580934302F999A7
:103B7000FECF85E090E092BD81BDF89A80B580933C
:103B800038020E947D0C0E944D1A82E084BD83E0C1
:103B900085BD8DE787BD80916E00826080936E0049
:103BA000539A80E28093B0008091B000836080934C
:103BB000B0008091B10088608093B10080E1809373
:103BC000B300F999FECF83E090E092BD81BDF89AF1
:103BD00080B58093B400259A80EA9FE064E60E9455
:103BE000B41A2FE088E190E00FB6F894A89580937E
:103BF00060000FBE209360000E9482190E945E192F
:103C0000F999FECF27E030E032BD21BDF89A80B5AA
:103C100080933D0280913D02883D80F087ED809346
:103C20003D0280913D02F999FECF1FBA32BD21BD00
:103C300080BD0FB6F894FA9AF99A0FBE1092490215
:103C40000E94B31400E010E05BE4E52EF12CC8E51F
:103C5000D2E042E0D42E35E0732E23E0622E882499
:103C6000839498E0A92E88EC982EB4E0CB2EA6E0A1
:103C7000BA2EF0924802E09247028091C401882354
:103C800079F080914502882359F01092C401D093B5
:103C9000D501C093D401109281004398109246023E
:103CA000133081F48091D201882361F4D092D30142
:103CB00080913D02813011F083E001C085E0809366
:103CC000D20110E08091C40182FF02C0D092C401F1
:103CD0008091C40181FF0EC01092C4018092D30173
:103CE00080913D02813011F083E001C085E0809336
:103CF000D20113E08091C40180FF45C01092C4013D
:103D00001092D3011092D20180914602853031F198
:103D1000863038F48330E9F08430A0F4882341F011
:103D200027C0823629F0883C41F0883009F51BC055
:103D3000909246020E945C121DC0C09246020E94F0
:103D4000271018C0609246020E947D0F1092AE01AB
:103D500011C0709246020E9418110CC0A092460237
:103D60000E94D21107C0B09246020E94B81002C051
:103D70001092460280914602882321F40E945E1927
:103D80000E94B31410E00E94871480914602882399
:103D900039F5002369F480914502882369F0809108
:103DA0004B0280FF09C081E00E94A11401E018C00D
:103DB00080914502882351F080914502882359F073
:103DC000002349F080914B0280FD05C080E00E94F5
:103DD000A11400E005C02D9A802F0E94E5142D98B3
:103DE0000E946B148091470290914802892BD1F771
:103DF00040CF9093C5008093C4001092C00088E12A
:103E00008093C1008EE08093C200519A509808952B
:103E100006C090E000009F5F9E31E1F7815088234B
:103E2000C1F7089520E23EE407C0F9013197F1F7A8
:103E30008A30910518F00A970097B9F7089540E283
:103E40005EE40CC028EE33E0FA013197F1F72A3036
:103E5000310518F02A503040B9F78150882391F786
:103E60000895982F8091C00085FFFCCF9093C600E5
:103E700080E090E008958091C00087FFFCCF8091A2
:103E8000C60008958091C00080780895AC0120E0BC
:103E900007C08091C00085FFFCCF3093C6002F5F24
:103EA000FA01E20FF11D3491332399F7662371F083
:103EB0008091C00085FFFCCF8AE08093C60080918E
:103EC000C00085FFFCCF8DE08093C6000895FC0103
:103ED00007C08091C00085FFFCCF31969093C6004B
:103EE00090819923B1F70895282F982F92959F706C
:103EF0009A3030F48091C00085FFFCCF905D05C002
:103F00008091C00085FFFCCF995A9093C600822F04
:103F100090E08F7090700A973CF48091C00085FF0C
:103F2000FCCF2F70205D06C08091C00085FFFCCFC4
:103F30002F70295A2093C60008951F93182F892F98
:103F40000E94741F812F0E94741F1F910895EF9289
:103F5000FF920F931F937B018C01C801AA27BB27F7
:103F60000E949D1FC7010E949D1F1F910F91FF90EE
:103F7000EF9008950F931F93CF93DF938C01E0E1AF
:103F8000F7E240E0C0E0D0E0C801BF010E94A323F7
:103F9000262F662329F4442319F4E130F10549F46E
:103FA0008091C00085FFFCCF205D2093C600205388
:103FB00041E0CF016AE070E00E94A3232196C53062
:103FC000D10571F0822F90E09C012E9FC0012F9FA0
:103FD000900D3E9F900D1124081B190BFB01D4CFAF
:103FE000DF91CF911F910F9108951F93CF93DF938E
:103FF000482F87FF08C08091C00085FFFCCF8DE26D
:104000008093C6004195E4E6F0E010E0C0E0D0E027
:10401000842F992787FD9095BF010E94A323262F07
:1040200016162CF0112319F4E130F10549F48091B2
:10403000C00085FFFCCF205D2093C600205311E017
:10404000CF016AE070E00E94A3232196C330D1051E
:1040500031F02E9F802D1124481BFB01D9CFDF9119
:10406000CF911F910895A0E0B0E0E9E3F0E20C9455
:1040700009244B015C01E12C9AECF92E9AE9092FF5
:104080009BE3192F4424C0E0D0E0C501B401A8018E
:1040900097010E94CA23D22E222341F4442031F4F6
:1040A00081E0E816F1040105110561F48091C0007A
:1040B00085FFFCCF80E3D80ED092C60080EDD80EED
:1040C00044244394C801B7012AE030E040E050E0C6
:1040D0000E94CA23C22E732E642E552E2196CA30FA
:1040E000D105A9F06D2D70E080E090E0A801970166
:1040F0000E947823861A970AA80AB90A2C2D372D10
:10410000462D552DC901DA017C018D01BECFCDB7F9
:10411000DEB7E0E10C942524982F809138028823A3
:1041200049F4892F90E047966CE070E00E94B72335
:10413000982F9F5F892F08952F923F924F925F9201
:104140006F927F928F929F92AF92BF92CF92DF92A7
:10415000EF92FF920F931F932090DA013090DB01D2
:104160004090DC015090DD016090DE017090DF0135
:104170008090E0019090E101AA24BB246501F50143
:10418000E370F070EE0FFF1FEE0FFF1FE25BFD4FBD
:10419000E080F18002811381EA0CFB1C0C1D1D1DC7
:1041A000D401C30175E0B695A795979587957A9543
:1041B000D1F7A401930164E0220F331F441F551F60
:1041C0006A95D1F782279327A427B527860D971DD7
:1041D000A81DB91DE826F9260A271B272E0C3F1C0F
:1041E000401E511E89EB99E7A7E3BEE9A80EB91E50
:1041F000CA1EDB1EA2019101F5E056954795379541
:104200002795FA95D1F7D201C101E4E0880F991FF3
:10421000AA1FBB1FEA95D1F7282739274A275B2712
:10422000220D331D441D551DD601C5017BE0B695F9
:10423000A795979587957A95D1F783709070880F99
:10424000991F880F991F825B9D4FFC01808191818E
:10425000A281B3818A0D9B1DAC1DBD1D2827392766
:104260004A275B27620E731E841E951EF0E2AF166E
:10427000F7E3BF06FFEECF06F6ECDF0609F07FCFCF
:104280002092DA013092DB014092DC015092DD0194
:104290006092DE017092DF018092E0019092E10174
:1042A0001F910F91FF90EF90DF90CF90BF90AF9054
:1042B0009F908F907F906F905F904F903F902F9046
:1042C0000895CF92DF92EF92FF920F931F93C62E25
:1042D00000EB16EE22E731EB00935A0210935B02DB
:1042E00020935C0230935D0250E060E070E00EE6E7
:1042F00011E729EE3DE240275127622773274093BB
:104300004E0250934F026093500270935102DD248D
:10431000EE24FF2421ED3DED4FE359E9C226D326DB
:10432000E426F526C0925202D0925302E092540243
:10433000F092550290E0A0E0B0E027E53BEF47E7C0
:104340005AE282279327A427B52780935602909399
:104350005702A0935802B09359021092DA011092BA
:10436000DB011092DC011092DD011092DE0110924F
:10437000DF011092E0011092E1010E949C201F9148
:104380000F91FF90EF90DF90CF90089580913502CC
:104390006091400240914B020E946121089581305A
:1043A000F9F48091DE019091DF01A091E001B091DC
:1043B000E1012091DA013091DB014091DC01509163
:1043C000DD0182279327A427B5273FE0B695A7955F
:1043D000979587953A95D1F79C01237030702FC03F
:1043E0008230F9F48091DE019091DF01A091E0012B
:1043F000B091E1012091DA013091DB014091DC01C3
:104400005091DD0182279327A427B52721E1B69596
:10441000A795979587952A95D1F79C0121703070C3
:104420000EC0A8950E949C202091DE013091DF01F2
:104430008091DA019091DB01282739273F77C90164
:104440000895AF92CF92EF920F93A82FB0E0E02F94
:10445000F0E0CD01840F911D8E179F07B4F0EC0D95
:10446000F11DEA17FB078CF070E04E2D50E0CB01F8
:10447000820F911D8417950744F080E04A0D511D6D
:10448000461757071CF081E001C080E00F91EF90C4
:10449000CF90AF9008950F931F93CF93DF93FC01BC
:1044A000EB018A0180818D3010F081E08083808172
:1044B0008230A1F4C8010E947D1A882329F08881E6
:1044C0008E3110F08DE11AC0C8010E947D1A882338
:1044D000B1F488818D3198F08CE110C080818430F6
:1044E00049F08081863031F08081893019F08081F7
:1044F0008B3029F488818F3110F08EE18883DF9131
:10450000CF911F910F910895809146028330B9F0A9
:1045100080913D02883D98F48091C8018F5F80931F
:10452000C801809135026091400240914B0223E026
:104530000E94AA0E8091C80181508093C801809189
:10454000C40180FF02C081E008958091C4018823E6
:1045500021F48091C501882321F08AE08093C7016E
:1045600004C08091C701882311F080E00895109263
:10457000460282E00895EF92FF920F931F93982FC7
:104580008B017A0180E0692F0E9454198CEA92E035
:1045900060E00E949615C80160E00E94961587EAC7
:1045A00092E060E00E949615C70160E00E949615B7
:1045B0001F910F91FF90EF9008958F929F92AF926D
:1045C000BF92CF92DF92EF92FF920F937C016B012B
:1045D0005A01490180E060E340E820E100E00E94E8
:1045E000BE1586E0B701A6010E94BB2287E0B50197
:1045F000A4010E94BB220F91FF90EF90DF90CF901B
:10460000BF90AF909F908F900895AC019B0187EB76
:1046100092E0BA0143EB52E00E94DD2208958EEB56
:1046200092E069EB72E00E940523089583ED92E029
:104630006EEC72E04AEC52E025EC32E00E94DD22A2
:10464000089588EE92E060EE72E04CED52E028EDC5
:1046500032E00E94DD220895A0E0B0E0E2E3F3E260
:104660000C940D24D82E862E922EC42FD0E0CC0F81
:10467000DD1FCC0FDD1FC85FDF4FCC24F999FECFC3
:10468000D2BDC1BDF89A80B5182D47E0E42EF12CBB
:10469000A82EBB24C5010E2C02C0959587950A94BF
:1046A000E2F780FF09C000E0992009F401E08D2DB8
:1046B000612F42E022E005C08D2D612F42E022E013
:1046C000092D0E94BE150894E108F1081E5F8FEFC6
:1046D000E8168FEFF806F1F6C39482E0D80E219623
:1046E00084E0C81659F6CDB7DEB7ECE00C94292467
:1046F000629FD001739FF001829FE00DF11D649FC6
:10470000E00DF11D929FF00D839FF00D749FF00D51
:10471000659FF00D9927729FB00DE11DF91F639FF2
:10472000B00DE11DF91FBD01CF0111240895991BA2
:1047300079E004C0991F961708F0961B881F7A9598
:10474000C9F780950895AA1BBB1B51E107C0AA1F9A
:10475000BB1FA617B70710F0A61BB70B881F991F22
:104760005A95A9F780959095BC01CD01089597FBC6
:10477000092E07260AD077FD04D0E5DF06D00020F9
:104780001AF4709561957F4F0895F6F7909581958D
:104790009F4F0895A1E21A2EAA1BBB1BFD010DC05D
:1047A000AA1FBB1FEE1FFF1FA217B307E407F507E1
:1047B00020F0A21BB30BE40BF50B661F771F881FBD
:1047C000991F1A9469F760957095809590959B0153
:1047D000AC01BD01CF01089597FB092E05260ED02F
:1047E00057FD04D0D7DF0AD0001C38F4509540950F
:1047F000309521953F4F4F4F5F4F0895F6F79095B5
:104800008095709561957F4F8F4F9F4F08952F92A0
:104810003F924F925F926F927F928F929F92AF9250
:10482000BF92CF92DF92EF92FF920F931F93CF939D
:10483000DF93CDB7DEB7CA1BDB0B0FB6F894DEBF34
:104840000FBECDBF09942A88398848885F846E845A
:104850007D848C849B84AA84B984C884DF80EE80A4
:10486000FD800C811B81AA81B981CE0FD11D0FB6AD
:10487000F894DEBF0FBECDBFED010895F894FFCFD1
:10488000E80364000A000100010105000024034759
:10489000066A098B0CAB0FC812E215F8180B1C192D
:1048A0001F2322282526281F2B112EFB30DE33BA8A
:1048B000368C39563C173FCE417A441C47B4493FA9
:1048C0004CBF4E33519B53F5554258825AB45CD776
:1048D0005EEC60F262E864CF66A6686D6A246CCA1A
:1048E0006D5F6FE2705572B573047541766C7784B5
:1048F000788A797D7A5D7B297CE37C8A7D1D7E9D2B
:104900007E097F627FA77FD87FF67F0004000114B5
:104910000501142200043A01002201000500041DD3
:104920000B0C0C0D0D0B010204080A142850010099
:00000001FF
